:100000000C948C010C94B4010C94B4010C94B401C4
:100010000C94B4010C94B4010C94B4010C94B4018C
:100020000C94B4010C94B4010C946B100C94E81073
:100030000C94B4010C94B4010C94B4010C94B4016C
:100040000C94B4010C947F140C94B4010C94B4017E
:100050000C94B4010C94B4010C94B4010C941A13D4
:100060000C94B4010C94B4010C94B4010C94B4013C
:100070000C94B4010C94B4010C94B4010C94B4012C
:100080000C94B4010C94B4010C94B4010C94B4011C
:100090000C9464130C94B4010C94B4010C94B4014A
:1000A0000C94B4010C94B4010C94B4010000000051
:1000B000240027002A002D00300000000000250049
:1000C00028002B002E003100000000002300260035
:1000D00029002C002F000404040404030405020278
:1000E00002020403020202020606060606060404D1
:1000F0000202020404040802011040804010204063
:10010000804080080204018040201002011080100D
:10011000204040200000000200090F0000030401FD
:10012000000C0000000000000000000000000000C3
:10013000000000080B000202020000090400000198
:10014000020200000524001001052401010104241D
:10015000020605240600010705810310004009047A
:100160000100020A00000007050202400000070526
:1001700083024000000403090412010002EF02019F
:100180004041233680000101020301417264756918
:100190006E6F204C4C430041726475696E6F204C49
:1001A000656F6E6172646F00656E636F6465727314
:1001B000636F756E7400636F6E73006675656C00B7
:1001C00074656D7000626F6F737400737065656441
:1001D0006F0074616368006D637574797065006C9D
:1001E0006973740000D57FAAFE2B815429FC5683C5
:1001F000D702A87D52872DF8AC79D3067BAE04D107
:100200008550FA2FA471DB0E5A8F25F08D58F227F6
:1002100073A60CD9F623895C08DD77A2DF0AA075E6
:1002200021F45E8B9D48E23763B61CC9B461CB1ED6
:100230004A9F35E0CF1AB06531E44E9BE633994CC6
:1002400018CD67B239EC4693C712B86D10C56FBAB6
:10025000EE3B91446BBE14C19540EA3F42973DE8A6
:10026000BC69C316EF3A904511C46EBBC613B96C96
:1002700038ED4792BD68C21743963CE99441EB3E86
:100280006ABF15C04B9E34E1B560CA1F62B71DC876
:100290009C49E33619CC66B3E732984D30E54F9A66
:1002A000CE1BB16472A70DD88C59F3265B8E24F156
:1002B000A570DA0F20F55F8ADE0BA17409DC76A346
:1002C000F722885DD603A97C28FD5782FF2A805536
:1002D00001D47EAB8451FB2E7AAF05D0AD78D20726
:1002E00053862CF905010905A101A1008503050923
:1002F00019012920150025017501952081020501AC
:1003000009300931093309341581257F75089504B1
:100310008102C0C03C15C31D11241FBECFEFDAE01F
:10032000DEBFCDBF24E0A2E1B2E001C01D92A33444
:10033000B207E1F712E0A0E0B1E0E8E3F1E402C0C7
:1003400005900D92A231B107D9F711E0CBE8D1E0C9
:1003500004C02197FE010E946E1ECA38D107C9F75A
:100360000E9478160C948F200C940000CF93DF939A
:10037000FC01818190914F03482F490F5527551F4C
:10038000483051059CF5A281B381109709F52BE403
:1003900033E033832283208120934D0380934E03E7
:1003A00080915003820F808320915103A22FB0913E
:1003B00052038A2F821B8917E8F481813D91C82F4F
:1003C000D0E0C45FDE4F38838F5F8183F2CFD901E5
:1003D00018962D913C91199721153105C1F72BE401
:1003E00033E019963C932E931897D5CF80E0DF9198
:1003F000CF91089581E0FBCF96E0899FD001112431
:10040000AE58BC4F90967C936E935F9791E0919617
:100410009C939197E091DF03F091E0039091DE03CC
:10042000992339F0309751F0811108C080918E03E3
:100430000994309719F05C968C91FACF08959091B9
:100440002E049032A1F020912D04290F3327331F61
:100450002032310510F0205231093327F901ED50D7
:10046000FC4F828F9F5F90932E0481E0089580E07F
:10047000089520912E042223C1F0E0912D04F0E094
:10048000ED50FC4F228DFC01208380912D048F5F65
:1004900080932D0490912E04915090932E048032DD
:1004A00011F410922D0481E0089580E00895FC017C
:1004B0008091E102882311F13FB7F89482E08093A4
:1004C000E9002091F200822F90E01816190614F42A
:1004D00081E090E0882339F0289844E64093E002D8
:1004E0004091F1004083222339F02091F200211144
:1004F00003C02BE62093E8003FBF08958FEF9FEFE6
:10050000089583E08093E9008091F200882319F038
:100510008AE38093E80008950C9481020F9370E0C1
:10052000FB01EE0FFF1FE60FF71FEE52FD4F40835A
:10053000218302830F91089580E991E0089540910D
:10054000AA025091AB022091A8023091A902421751
:100550005307B4F49091E8009570E1F39091E800AE
:1005600092FD19C08093F1008091AA029091AB0294
:1005700001968F739927892B19F48EEF8093E800E9
:100580008091AA029091AB0201969093AB02809366
:10059000AA0281E0089580E00895EF92FF920F9300
:1005A0001F93CF93DF93F82E192FE62E042F81E0AF
:1005B000860F880F0E949F0283E00E949F02CF2D2A
:1005C000D12FEC0EFD2EF11CCE15DF05B9F007FF83
:1005D00013C0FE0184910E949F02182F80E00E94A8
:1005E0009F02812321968111EFCFDF91CF911F913F
:1005F0000F91FF90EF9008958881EDCF81E0F5CFC6
:10060000DF92EF92FF920F931F93CF93DF93D82E39
:100610008A01EB017B01E40EF51ECE15DF0559F0D2
:10062000D7FE12C0FE0184910E949F022196811183
:10063000F4CF0FEF1FEFC801DF91CF911F910F9102
:10064000FF90EF90DF9008958881EECF2FB7F89458
:1006500087708093E9009091E800892F807295FF60
:1006600004C09091F20080E4891B2FBF089561506F
:1006700030F02091F100FC0120830196F8CF2898FA
:1006800084E68093E00208958091A00281110DC05C
:1006900082E080939C0284E080939D0210929F02EE
:1006A00010929E0281E08093A0028CE992E008956E
:1006B0000F931F93CF93DF931F92CDB7DEB782E0E6
:1006C000898342E450E063E371E080E80E94000324
:1006D0000E944403DC0112960D911C910115110535
:1006E00089F0D801ED91FC910280F381E02DBE01EB
:1006F0006F5F7F4FC801099597FD04C0F801008521
:100700001185ECCF89810F90DF91CF911F910F91CF
:100710000895CF93DF931F92CDB7DEB76983DC01D5
:10072000ED91FC910280F381E02D41E050E0BE01AB
:100730006F5F7F4F09950F90DF91CF91089583E010
:100740000E94260390E00895CF93DF931F92CDB7C8
:10075000DEB7FC018485958597FD08C02FEF3FEF3C
:10076000358724870F90DF91CF910895CE010196B0
:100770000E945702019719F4898190E0F3CF8FEF1F
:100780009FEFF0CF0F931F93CF93DF931F92CDB7BF
:10079000DEB78C01FC018485958597FF0BC0CE01E7
:1007A00001960E945702019771F4898190E0F80147
:1007B00095878487F801848595850F90DF91CF9187
:1007C0001F910F9108958FEF9FEFF1CFFC0184856A
:1007D000958597FD0BC09FB7F89482E08093E90060
:1007E0008091F2009FBF90E0019608959FB7F89422
:1007F00082E08093E9008091F2009FBF90E008952D
:1008000081508F3008F047C0E82FF0E0E65FFB4FE3
:100810000C946E1E27042B0419041F0423044B049C
:100820004B044B042E04340438043C0442044B04AF
:100830004604809180008F77809380000895809196
:1008400080008F7DF9CF80918000877FF5CF84B5C0
:100850008F7784BD089584B58F7DFBCF8091900004
:100860008F77809390000895809190008F7DF9CFCD
:1008700080919000877FF5CF8091C0008F77809323
:10088000C00008958091C0008F7DF9CF8091C20093
:10089000877F8093C2000895CF93DF93282F30E0A5
:1008A000F901EC5EFE4F8491F901EB50FF4FD491BA
:1008B000F901EA52FF4FC491CC23A1F081110E94AB
:1008C0000004EC2FF0E0EE0FFF1FE853FF4FA5915F
:1008D000B491EC91ED2381E090E009F480E0DF91A8
:1008E000CF91089580E090E0FACF862F0C944C04CD
:1008F0001F93CF93DF93282F30E0F901EC5EFE4F7A
:100900008491F901EB50FF4FD491F901EA52FF4F66
:10091000C491CC23A9F0162F81110E940004EC2F62
:10092000F0E0EE0FFF1FE654FF4FA591B4918FB793
:10093000F894EC91111108C0D095DE23DC938FBFA1
:10094000DF91CF911F910895DE2BF8CF862F642F72
:100950000C947804CF93DF9390E0FC01EB50FF4FB1
:1009600024918A529F4FFC0184918823C9F090E022
:10097000880F991FFC01E455FF4FA591B491FC012C
:10098000E654FF4FC591D49161110DC09FB7F89403
:100990008C91209582238C938881282328839FBF64
:1009A000DF91CF910895623051F49FB7F8943C9154
:1009B000822F809583238C93E8812E2BEFCF8FB7E6
:1009C000F894EC912E2B2C938FBFEACF862F642FB7
:1009D0000C94AA043FB7F8948091980290919902E0
:1009E000A0919A02B0919B0226B5A89B05C02F3F0B
:1009F00019F00196A11DB11D3FBFBA2FA92F982F45
:100A00008827BC01CD01620F711D811D911D42E03F
:100A1000660F771F881F991F4A95D1F708958F9207
:100A20009F92AF92BF92CF92DF92EF92FF924B01D3
:100A30005C010E94EA046B017C010E94EA046C19CB
:100A40007D098E099F09683E734081059105A8F3D1
:100A500021E0821A9108A108B10888EEC80E83E04F
:100A6000D81EE11CF11C81149104A104B10429F7E2
:100A7000FF90EF90DF90CF90BF90AF909F908F90BE
:100A800008957F928F929F92AF92BF92CF92DF9202
:100A9000EF92FF920F931F93CF93DF93C82E8B019A
:100AA0007A018091E102811110C08FEF9FEFDF91F9
:100AB000CF911F910F91FF90EF90DF90CF90BF905B
:100AC000AF909F908F907F9008958091AE0280FFAD
:100AD00005C08091E00082608093E000CE2DDF2D84
:100AE000D12C8AEFB82E8C2D8770982E8C2D807289
:100AF000882E8C2D8074782E9AE3A92E209719F4D5
:100B0000DD2009F452C08C2D0E94260381110AC0F9
:100B1000BA94BB2051F261E070E080E090E00E9466
:100B20000F05ECCF8C171D0611F00CF08C2F9FB722
:100B3000F8949092E9002091E80025FD02C09FBF43
:100B4000DDCF282F30E0C21BD30B882029F0815045
:100B5000A0F01092F100FBCFF801C7FC0AC0815051
:100B600050F041914093F100FACF44914093F1004D
:100B700031968150D0F7020F131FDD2021F0A09293
:100B8000E800D12CDCCF8091E80085FD07C0A09261
:100B9000E800DD24D394209791F2F3CF209779F6E3
:100BA000772069F2A092E800CACF5D9884E680932E
:100BB000AD02C7017CCFCF92DF92EF92FF920F93ED
:100BC0001F93CF93DF931F92CDB7DEB7E62F00912F
:100BD0003704109138042091390430913A0441E0EF
:100BE00050E060E070E06A017B0104C0CC0CDD1CC9
:100BF000EE1CFF1C8A95D2F7D701C601EE2309F43B
:100C00005AC0802B912BA22BB32B80933704909347
:100C10003804A0933904B0933A0480915C038111A5
:100C20002AC011E010934F031093500385E593E021
:100C300090935203809351031092540310925303E4
:100C400088E791E090934C0380934B0310925703F5
:100C500010925603109259031092580310935A039E
:100C600010935B0381EC809355030E9444030E9420
:100C7000B60110935C0383E0898341E050E0BE013C
:100C80006F5F7F4F80914E030E94410597FD09C021
:100C900080914E0348E050E067E374E080640E9476
:100CA00041050F90DF91CF911F910F91FF90EF9031
:100CB000DF90CF90089580959095A095B095802372
:100CC0009123A223B323A1CFCF93DF93EC01809193
:100CD0000B01882331F083E00E94410518161906A4
:100CE00034F081E090E09B838A8380E090E0DF91A4
:100CF000CF9108952FB7F894609194027091950266
:100D000080919602909197022FBF0895CF92DF9223
:100D1000EF92FF920F931F930E947A060091EA02CE
:100D20001091EB022091EC023091ED026B017C01FD
:100D3000C01AD10AE20AF30AA7019601211531056A
:100D40004105510521F421E030E040E050E0E09120
:100D5000E802F091E90288EE93E0E89FB001E99F94
:100D6000700DF89F700D1124072E000C880B990B45
:100D70000E944C1E3093400320933F031092E902DF
:100D80001092E8020E947A066093EA027093EB02E6
:100D90008093EC029093ED021F910F91FF90EF90E2
:100DA000DF90CF9008950F931F93CF93DF93C82FB9
:100DB000D62F86E0C89FF0011124EE58FC4F11A2F7
:100DC000878D90A181309105F1F058F08230910526
:100DD000F1F1039709F440C0DF91CF911F910F917A
:100DE00008956623C9F361E070E08C2F0E94FC0136
:100DF0000E947A066093CA037093CB038093CC035E
:100E00009093CD03E9CF0E947A060091CA03109116
:100E1000CB032091CC033091CD03AB01BC01401B2F
:100E2000510B620B730B8091DC039091DD03B0E0FA
:100E3000A0E084179507A607B70748F462E070E0C2
:100E40008C2FDF91CF911F910F910C94FC0163E0E7
:100E500070E0D111C1CFF4CF70E060E0F1CF20910C
:100E60004902260F3327331F21323105ECF420913C
:100E70006D02FC0190E080E0243069F082E008958A
:100E8000A09149022191AC01475D5D4FA40FB52FA0
:100E9000B11D2C930196861798F380914902680F33
:100EA0006093490280E0089581E0089508958FEFEE
:100EB0009FEF08958FEF9FEF08958091220290E0B9
:100EC0009195819591090895CF93DF93CB01EA0124
:100ED000642F0E942F07CE01DF91CF910895CF9309
:100EE000DF931F92CDB7DEB7698361E0CE01019633
:100EF0000E942F0781E090E00F90DF91CF9108953D
:100F000090E080E00895DC01FB0112962C9112978D
:100F1000848195812817190641F491818081813A55
:100F200031F49D7F81E0913009F080E008958132B5
:100F3000E1F79B3029F482811F968C9381E008951C
:100F40009A3099F7828150968C93F8CFDC01FB019F
:100F500088E4808389E4818384E482831D969C9164
:100F60001D979F709F5B93831D968D919C9124E0AC
:100F7000969587952A95E1F78F708F5B848385E03E
:100F80000895EF92FF920F931F93CF93DF93FB018E
:100F90002081213871F52381223259F5DC01129626
:100FA0004C91248135814217130619F5EC010B850C
:100FB0001C85F12CE12C0115110589F0F801448103
:100FC00055816281738180E80E9400038F3F9807FA
:100FD00049F0E80EF91ED8010D911C91ECCF81E08B
:100FE0008F87C701DF91CF911F910F91FF90EF90F5
:100FF000089590E080E0F6CFCF93DF93CDB7DEB7D2
:1010000069970FB6F894DEBF0FBECDBFFC01DB01C0
:101010008C918F5F8C939E012D5F3F4F8DE0D901A6
:101020001D928A95E9F729E0298384E08A8391E07B
:101030009D8383E08E832A8721E22B879C879D876F
:101040009F8722E2288B27E02B8B25E02C8B8E8B31
:1010500020E430E0388F2F8B998F82818B839585A8
:101060008685998B8A8B838180688D8B49E150E0DE
:10107000BE016F5F7F4F80E00E94000369960FB64C
:10108000F894DEBF0FBECDBFDF91CF910895CF930F
:10109000C82F68E08EEE92E00E9489036C2F8EEEDE
:1010A00092E00E948903CF910C948102CF92DF924B
:1010B000EF92FF92CF93DF93EC010E947A066B01CF
:1010C0007C01E881F981309711F081E009958EEE7D
:1010D00092E00E94A40397FF0DC00E947A066C194B
:1010E0007D098E099F09643671058105910548F3D4
:1010F0008FEF9FEFDF91CF91FF90EF90DF90CF9038
:101100000895CF92DF92EF92FF920F931F93CF93A8
:10111000DF938EEE92E00E94E603181619060CF09B
:101120009BC08FE294E00E945608019791F78FE2EE
:1011300094E00E945608019709F08EC08FE294E077
:101140000E9456088C01C1E097FD2AC08FE294E00E
:101150000E9456087C010197809708F061C083EFD8
:10116000C82E83E0D82E8FE294E00E945608F60144
:1011700081936F01C0E097FDC5E0C601835F934096
:101180008E159F055CF0C1110BC08FE294E00E94A8
:1011900056089C0197FF46C0C3E002C0CC2319F358
:1011A000D0910B0464E08EEE92E00E9489036D2FD3
:1011B0008EEE92E00E9489036C2F2BC080910B046D
:1011C00090910C04C4E0E217130651F780389105A2
:1011D0001CF090E080E001C001960817190719F093
:1011E0000F3F110581F4C3EFD3E0CE01835F93403D
:1011F0008E159F0524F489910E941F02F6CF10934B
:101200000C0400930B0463E08EEE92E00E948903CD
:10121000602F8EEE92E00E9489030E94810279CFB6
:10122000C2E0BECFF801EC51FE4FE491C7018E271A
:10123000FC01EC51FE4FE491A3EFB3E0CD01835FDD
:1012400093408E159F050CF0B9CF9D91E927F0E0F2
:10125000EC51FE4FE491F2CFDF91CF911F910F91AE
:10126000FF90EF90DF90CF900895CF92DF92EF92B2
:10127000FF92CF93DF931F92CDB7DEB70E947A061D
:101280006B017C01E0912F04F0913004309711F054
:1012900080E0099580912E04882379F01982CE018F
:1012A00001960E943902898190E00F90DF91CF91E1
:1012B000FF90EF90DF90CF9008950E9481080E94E8
:1012C0007A066C197D098E099F0960397140810584
:1012D0009105C0F280912E048111D4CF8FEF9FEF42
:1012E000E4CF0F931F93CF93DF93209121022F5FC1
:1012F000322F37703093210220FF2BC020E831FDC0
:101300002064347009F02062205FFC01EC01239618
:1013100000E011E06485662329F070E0C8010E94B6
:10132000381E6F5F6187322F369F030E30E0311D0C
:101330001124311110C01682662311F061506187AB
:101340003196EC17FD0731F7DF91CF911F910F9187
:10135000089520E0D4CF31503683EECF4F925F9284
:101360007F928F929F92AF92BF92CF92DF92EF9235
:10137000FF920F931F93CF93DF932C01EB010E94F9
:10138000EA04F20127853089621B730B6A3071050C
:10139000B0F3F8948A819B81181619060CF0CDC120
:1013A000E881F9816BB1862E689480F83BB13E7F6D
:1013B0003BB9DA848F812D2D281B822F2F834F85F7
:1013C000042E000C550BAA81BB817D85FC84EE8424
:1013D0007F5FF394E3949E819884B984AB841181F8
:1013E000C12C6C2D0C2D2C2D2181112788942111BD
:1013F000280F08F42FEF8195889470FD120F179530
:10140000889471FD120F1795889472FD120F17952D
:10141000889473FD120F1795889474FD120F179519
:10142000889475FD120F1795889476FD120F179505
:10143000889477FD120F17958894622F7111612F90
:101440008D0D162F002C8BB800C017FF3BB92081E3
:101450006627889400C000C0002C3BB92111290FD9
:1014600000C0002C8BB800C016FF3BB908F42FEF6A
:101470009195889400C000C0002C3BB9F0FC620F2D
:1014800000C0002C8BB800C015FF3BB9679588944D
:10149000F1FC620F00C000C0002C3BB96795889436
:1014A00000C0002C8BB800C014FF3BB9F2FC620FE7
:1014B0006795889400C000C0002C3BB9F3FC620F14
:1014C00000C0002C8BB800C013FF3BB9679588940F
:1014D000F4FC620F00C000C0002C3BB967958894F3
:1014E00000C0002C8BB800C012FF3BB9F5FC620FA6
:1014F0006795889400C000C0002C3BB9F6FC620FD1
:1015000000C0002C8BB800C011FF3BB967958894D0
:10151000F7FC620F00C000C0002C3BB967958894AF
:1015200000C0002C8BB800C010FF3BB9122FF11087
:10153000162F9B0D00C000C0002C3BB900C000C09E
:10154000002C8BB800C017FF3BB922816627889416
:1015500000C000C0002C3BB92111290D00C0002C97
:101560008BB800C016FF3BB908F42FEFE40FF51F4E
:1015700000C000C0002C3BB9E0FC620F00C0002C92
:101580008BB800C015FF3BB967958894E1FC620FEA
:1015900000C000C0002C3BB96795889400C0002CA7
:1015A0008BB800C014FF3BB9E2FC620F67958894CA
:1015B00000C000C0002C3BB9E3FC620F00C0002C4F
:1015C0008BB800C013FF3BB967958894E4FC620FA9
:1015D00000C000C0002C3BB96795889400C0002C67
:1015E0008BB800C012FF3BB9E5FC620F6795889489
:1015F00000C000C0002C3BB9E6FC620F00C0002C0C
:101600008BB800C011FF3BB967958894E7FC620F67
:1016100000C000C0002C3BB96795889400C0002C26
:101620008BB800C010FF3BB9122FE110162F919418
:1016300000C000C0002C3BB99A0C00C000C08BB8A1
:1016400000C017FF3BB921816627889400C000C005
:10165000002C3BB92111280F00C0002C8BB800C012
:1016600016FF3BB908F42FEF8195889400C000C0A5
:10167000002C3BB970FD620F00C0002C8BB800C07D
:1016800015FF3BB96795889471FD620F00C000C0DB
:10169000002C3BB96795889400C0002C8BB800C023
:1016A00014FF3BB972FD620F6795889400C000C0BB
:1016B000002C3BB973FD620F00C0002C8BB800C03A
:1016C00013FF3BB96795889474FD620F00C000C09A
:1016D000002C3BB96795889400C0002C8BB800C0E3
:1016E00012FF3BB975FD620F6795889400C000C07A
:1016F000002C3BB976FD620F00C0002C8BB800C0F7
:1017000011FF3BB96795889477FD620F00C000C058
:10171000002C3BB96795889400C0002C8BB800C0A2
:1017200010FF3BB9122F7111162F8D0D00C000C094
:10173000002C3BB9119709F086CE4A815B8120EEDF
:1017400031E0DA010E94741EDC01CB01F4E0B695B1
:10175000A79597958795FA95D1F730E020E0B901E4
:10176000EAE94E9F040E611D5E9F600D711D1124FC
:10177000650F711D860F971FA11DB11D893E43E0A6
:101780009407A105B10508F434C0885E9340A1090F
:10179000B10942E0B695A795979587954A95D1F7F7
:1017A00047E0849F080E211D949F200D311D1124B8
:1017B000290F311D6091200270E0860F971F820F64
:1017C000931F4091940250919502609196027091FE
:1017D0009702292F3327420F531F611D711D40931C
:1017E00094025093950260939602709397028093AF
:1017F000200278940E94EA04F201708B6787DF91DF
:10180000CF911F910F91FF90EF90DF90CF90BF90FD
:10181000AF909F908F907F905F904F900895509AD7
:1018200008956F927F928F92CF92DF92EF92FF9204
:101830000F931F93CF93DF93CDB7DEB762970FB6A9
:10184000F894DEBF0FBECDBF6C017A013801822E45
:10185000DC011C962C91CA0157FF04C088279927E8
:10186000841B950B7A8369839C838B839E838D83F2
:101870006D867E868F86213049F5CE0101960E94C5
:10188000710983E0888B1A8A198AF7FE02C08DEFEE
:10189000888BD601ED91FC910484F585E02DBE0185
:1018A0006F5F7F4FC601099562960FB6F894DEBF51
:1018B0000FBECDBFDF91CF911F910F91FF90EF90A1
:1018C000DF90CF908F907F906F9008951C861B863D
:1018D0001A86198618861F82D4CFEF92FF920F9333
:1018E0001F93CF93DF93CDB7DEB762970FB6F8940F
:1018F000DEBF0FBECDBF7C01DC011C968C917A83CC
:1019000069835C834B835E834D830D871E872F879E
:101910008130F9F4CE0101960E947109188A1A8A61
:10192000198AD701ED91FC910484F585E02DBE0163
:101930006F5F7F4FC701099562960FB6F894DEBFBF
:101940000FBECDBFDF91CF911F910F91FF90EF9010
:1019500008951C861B861A86198618861F82DECF7C
:101960000F931F930E947A060091E1031091E20306
:101970002091E3033091E403601B710B820B930B06
:101980000091E5031091E6032091E7033091E8030D
:10199000061717072807390750F40E947A06609344
:1019A000E1037093E2038093E3039093E4031F91B8
:1019B0000F91089580E00E9447080C94810290E006
:1019C00080E008954F925F926F927F928F929F92E4
:1019D000AF92BF92CF92DF92EF92FF920F931F933D
:1019E000CF93DF9300D01F92CDB7DEB76A01198283
:1019F0001A821B828823C9F18B01E1E0F0E0482EB6
:101A0000512C712C612CD8012D918D01222349F18B
:101A10007F01B1E0EB1AF108D601AE0DBF1D8C902D
:101A20008820F9F030E050E040E02F5F3F4F4F4F0B
:101A30005F4FC301B2010E94281E9B01AC01912C93
:101A4000B12CA12CC501B4016F5F7F4F8F4F9F4F09
:101A50000E94281EA1E0B0E0AC0FBD1FAE0DBF1D5F
:101A60008C933196E430F10571F669817A818B812E
:101A70000F900F900F90DF91CF911F910F91FF90DA
:101A8000EF90DF90CF90BF90AF909F908F907F901E
:101A90006F905F904F900895CF92DF92EF92FF92F8
:101AA0000F931F93CF93DF93F0903E0380914103F8
:101AB00090914203A0914303B0914403892B8A2B58
:101AC0008B2BD9F00E94EA040091E4021091E50208
:101AD0002091E6023091E702601B710B820B930BA1
:101AE000009141031091420320914303309144033C
:101AF0006017710782079307C8F20E94EA04609397
:101B0000E4027093E5028093E6029093E702E0918D
:101B10004903F0914A03309759F0409145035091A1
:101B2000460360914703709148038F2D0995F82E65
:101B3000C091E202D091E302209721F1EC848091E0
:101B40003F03909140038436910508F41C86E88198
:101B5000F981C280D380AE01475F5F4FBE016A5FEB
:101B60007F4F8F2D0E94E20C8B01282F4D855E85C3
:101B70006A817B81CE01F6010995EC860C80DD81BE
:101B8000C02DDACF8091E8029091E9029C012F5F8D
:101B90003F4F3093E9022093E802499754F0DF91D8
:101BA000CF911F910F91FF90EF90DF90CF900C9409
:101BB0008606DF91CF911F910F91FF90EF90DF90FC
:101BC000CF9008950C944C0DAF92BF92CF92DF92BC
:101BD000EF92FF920F931F93CF93DF936C01F62E3A
:101BE0008091410390914203A0914303B09144033B
:101BF000892B8A2B8B2BD9F00E94EA040091E402F6
:101C00001091E5022091E6023091E702601B710B12
:101C1000820B930B009141031091420320914303E7
:101C2000309144036017710782079307C8F20E943E
:101C3000EA046093E4027093E5028093E6029093D5
:101C4000E702E0914903F0914A03309759F040913F
:101C500045035091460360914703709148038F2DCF
:101C60000995F82EC091E202D091E302209719F174
:101C7000EC8480913F03909140038436910508F4F1
:101C80001C86E881F981A080B180AE01475F5F4F7B
:101C9000BE016A5F7F4F8F2D0E94E20C4D855E85ED
:101CA0008B01282FB601CE01F5010995EC860C8039
:101CB000DD81C02DDBCF8091E8029091E9029C018B
:101CC0002F5F3F4F3093E9022093E802499764F079
:101CD000DF91CF911F910F91FF90EF90DF90CF9008
:101CE000BF90AF900C948606DF91CF911F910F911A
:101CF000FF90EF90DF90CF90BF90AF900895FC01E0
:101D00008585968508950F931F93CF93DF9300D019
:101D10001F92CDB7DEB7AB0119821A821B82DC019C
:101D2000ED91FC910190F081E02D00E010E020E0C9
:101D3000BE016F5F7F4F09950F900F900F90DF915D
:101D4000CF911F910F9108950F931F93CF93DF931E
:101D5000EC01FC0101900020E9F731978F01081B8D
:101D6000190B66E08EEE92E00E948903602F8EEEE2
:101D700092E00E948903FE0101900020E9F731976B
:101D8000AF014C1B5D0BBE018EEE92E00E9464061B
:101D900060E28EEE92E00E948903DF91CF911F9165
:101DA0000F910C9481020E947120FC0124813581E5
:101DB000FB014481558124173507E1F4FC01808142
:101DC0009181FB01608171810097D1F061157105EE
:101DD000A1F4232BC1F0FC01808190E008C0232BEB
:101DE00091F0FB01808190E091958195910921E02E
:101DF000892B09F020E0822F08950E947F20F7CFE1
:101E00006115710561F721E0F6CF0F931F93CF9312
:101E1000DF93EC0188819981009759F02A813B81F9
:101E20002617370730F081E0DF91CF911F910F9196
:101E300008958B016F5F7F4F0E94B41F009759F088
:101E4000998388831B830A832C813D81232B59F737
:101E5000FC011082E8CF80E0E7CFEF92FF920F9372
:101E60001F93CF93DF936115710541F480E0DF91FB
:101E7000CF911F910F91FF90EF900895411551055B
:101E8000B1F07B01EC010C811D81040F151FB8011D
:101E90000E94050F882351F3288139818C819D810F
:101EA000B701820F931F0E9488201D830C8381E05D
:101EB000DECFCF93DF93EC0188819981009711F0F9
:101EC0000E942B1F198218821D821C821B821A827B
:101ED000DF91CF9108950F931F93CF93DF938C01E0
:101EE000EC0109900020E9F72197C81BD90BBE012E
:101EF00081E394E00E94050F811108C081E394E022
:101F0000DF91CF911F910F910C94590FD09336040C
:101F1000C0933504B8018091310490913204DF916F
:101F2000CF911F910F910C948820EF92FF920F9305
:101F30001F93CF93DF938C017B01EB01099000206D
:101F4000E9F72197C61BD70BBE010E94050F81112F
:101F500009C0C801DF91CF911F910F91FF90EF90C1
:101F60000C94590FF801D583C483B7018081918106
:101F7000DF91CF911F910F91FF90EF900C948820EB
:101F8000FC0180819181009711F00C942B1F089522
:101F9000EF92FF920F931F93CF93DF93EC018B018E
:101FA000198218821B821A821D821C82CB010E9418
:101FB000CE1D7C01BC01CE010E94050F811109C01C
:101FC000CE01DF91CF911F910F91FF90EF900C9474
:101FD000590FFD82EC82B80188819981DF91CF9100
:101FE0001F910F91FF90EF900C94C71D1F93CF93FB
:101FF000DF9385ED8093BC008091250290912602AD
:10200000A0912702B09128020796A11DB11D23E0DF
:10201000B695A795979587952A95D1F72091BC00FD
:1020200024FD03C010926D0252C0409125025091D0
:1020300026026091270270912802452B462B472BE0
:1020400069F30097A105B10541F02AE22A95F1F75D
:1020500000C00197A109B109E1CF80912402C1E03C
:10206000C0932302882399F1D091B8001091BA004F
:102070008091BC008A7B8093BC0060E082E00E947B
:10208000780460E083E00E94780410926D02C093AF
:102090006F0210926E0261E082E00E94780461E0BB
:1020A00083E00E9478048091B9008E7F8093B9000C
:1020B0008091B9008D7F8093B90088E48093B80047
:1020C00085E48093BC001093BA00D093B800DF91F0
:1020D000CF911F9108951F920F920FB60F92112466
:1020E0002F933F934F935F936F937F938F939F9320
:1020F000AF93BF93CF93EF93FF93C091E100809193
:10210000E100837F8093E100C3FF0FC01092E900DC
:1021100081E08093EB001092EC0082E38093ED006D
:102120001092E10288E08093F000C2FF1AC00E9482
:1021300081028091AD02882341F08091AD028150EF
:102140008093AD02811101C05D9A8091E0028823E5
:1021500041F08091E00281508093E002811101C042
:10216000289AC4FF23C08091E2008E7E8160809314
:10217000E2008091E1008F7E8093E1008091AE02C9
:102180008E7E80618093AE02FF91EF91CF91BF91DF
:10219000AF919F918F917F916F915F914F913F91FF
:1021A0002F910F900FBE0F901F901895C0FFECCF8E
:1021B0008091E2008E7E80618093E2008091E10058
:1021C0008E7E8093E1008091AE028E7E8160DACFB8
:1021D0001F920F920FB60F921124CF92DF92EF92BF
:1021E000FF920F931F932F933F934F935F936F93A0
:1021F0007F938F939F93AF93BF93EF93FF93CF936F
:10220000DF93CDB7DEB76C97DEBFCDBF1092E9008C
:102210008091E80083FF25C068E0CE0145960E94CA
:10222000370382EF8093E8008D8987FF39C0909152
:10223000E80090FFFCCF982F907609F034C19E897A
:102240004F89588D2F89F88C911131C0803861F5F4
:102250008091AF028093F1001092F1008EEF809395
:10226000E8006C960FB6F894DEBF0FBECDBFDF91CD
:10227000CF91FF91EF91BF91AF919F918F917F91FE
:102280006F915F914F913F912F911F910F91FF900F
:10229000EF90DF90CF900F900FBE0F901F9018958A
:1022A0009EEF9093E800C7CF1092F100D5CF913008
:1022B00059F48111D3CF4130510581F68091AF029D
:1022C0008D7F8093AF02CACF933049F48111C6CF7E
:1022D0004130510519F68091AF028260F2CF9530FE
:1022E00041F48091E80080FFFCCF20682093E30058
:1022F000B5CF963009F0A9C00B8D1C8D22E010924D
:10230000E9001092AB021092AA02F2122EC01092B3
:10231000A9021092A8020E9458031F8299E0998393
:10232000FA8291E09E8390EA98879AEF99872091AC
:10233000AA023091AB02275F3F4F3C832B838D83F2
:102340001092E9001092AB021092AA021093A90217
:102350000093A80249E050E0BE016F5F7F4F80E02C
:102360000E9400030E94580379CF1093A9020093A2
:10237000A8020E944403DC0112960D911C910115E4
:10238000110509F451C1D801ED91FC910480F5814A
:10239000E02DBE016B5E7F4FC8010995009709F0E3
:1023A0003EC1F80100851185EACFF3E0FF120EC0AF
:1023B0008F89882309F440C0823061F440E860E1ED
:1023C00087E991E00E94CD02811148CF81E280939C
:1023D000EB0047CF813029F440E86BE08BE891E0D7
:1023E000F1CF833099F70E944403DC011296ED90FF
:1023F000FC908E010F5F1F4F6801E114F10479F02A
:10240000D701ED91FC910680F781E02DB801C7015D
:102410000995080F111DF701E084F184EECFD80172
:102420001C92F60101900020E9F73197BF016C1969
:102430007D0940E0C601C6CF65E771E0FB0144912C
:1024400050E080E80E94000309CF973009F4BECF26
:10245000983021F481E08093F10000CF993009F0A9
:10246000FDCE837009F0B2CFEDE0F1E081E031E024
:1024700096E32191222371F08093E9003093EB00E1
:10248000DF0111972C912093EC009093ED008F5F6A
:10249000873079F78EE78093EA001092EA008F89FF
:1024A0008093E102DBCE8B8D9C8D1092E90010921F
:1024B000AB021092AA029093A9028093A802898D80
:1024C000811192C08E899D89913A49F4813209F037
:1024D0007DCF47E050E064E071E080E0B3CF91321F
:1024E00009F074CF833269F48F89988DB0E0A0E051
:1024F0008093000190930101A0930201B093030126
:10250000ADCE803269F48091E80082FFFCCF67E0B5
:1025100084E091E00E9437038BEF8093E8009ECE29
:10252000823209F09BCE8F8980930B01EEEFFFE79B
:10253000859194918B3F9C4D51F1E0E0F8E08091C2
:10254000040190910501A0910601B0910701803B23
:102550009440A105B105F1F480910B0180FD1AC0F2
:10256000EE3F8AE0F80789F587E797E79183808354
:10257000809160008093AC0288E19BE00FB6F894F4
:10258000A895809360000FBE9093600067CEEEEF39
:10259000FAE0D5CF808191818737974709F05ECEE9
:1025A000A895809160008861809360008091AC0262
:1025B00080936000EE3F2AE0F20789F08091FE0AE6
:1025C0009091FF0A9183808349CE808191818737E2
:1025D000980751F29093FF0A8093FE0AC5CF10929C
:1025E000FF0A1092FE0A3ACE0E944403DC011296C2
:1025F0000D911C910115110509F4E8CED801ED915A
:10260000FC910190F081E02DBE016B5E7F4FC8010F
:102610000995811123CEF80100851185EBCF18169D
:1026200019060CF41BCED2CEF1E0FF12BECE69E744
:1026300071E004CF1F920F920FB60F9211242F93C7
:102640003F938F939F93AF93BF9380919402909108
:102650009502A0919602B09197023091930223E0E7
:10266000230F2D3758F50196A11DB11D209393021C
:102670008093940290939502A0939602B093970250
:102680008091980290919902A0919A02B0919B0238
:102690000196A11DB11D8093980290939902A09379
:1026A0009A02B0939B02BF91AF919F918F913F91FE
:1026B0002F910F900FBE0F901F90189526E8230FB3
:1026C0000296A11DB11DD2CF1F920F920FB60F928D
:1026D00011242F933F934F935F936F937F938F9327
:1026E0009F93AF93BF93EF93FF938091B900887F3F
:1026F000803609F44AC0F0F5883209F4A5C018F50F
:10270000803109F499C0B8F4882309F4F5C0883001
:1027100009F492C0FF91EF91BF91AF919F918F917A
:102720007F916F915F914F913F912F910F900FBECD
:102730000F901F901895883109F486C0803251F7A8
:1027400080936C0214C0803409F49BC040F4803341
:10275000B9F38833F9F680936C0285ECAEC080350E
:1027600009F483C0883509F494C0883499F60E942E
:10277000F60FD0CF883909F48AC038F5883729F0A8
:1027800050F4883611F0803729F683E080936D028B
:1027900010926B0255C0883809F479C0803919F05D
:1027A000803809F0B7CF80916B02803208F06FC09B
:1027B000E0916B0281E08E0F80936B028091BB00F1
:1027C000F0E0E55BFD4F80833BC0803B39F0D0F407
:1027D000803A09F477C0883A09F09CCF84E080936E
:1027E0006D0210924A0210924902F0E0E0E0099571
:1027F0008091490281110FC081E0809349021092BB
:10280000290209C0803C09F4A8CF883C09F4A5CF6F
:10281000883B09F07FCFE0914A0281E08E0F8093E0
:102820004A02F0E0E75DFD4F80818093BB0090910C
:102830004A028091490229C0809192028093BB0094
:1028400085EC8093BC0066CF9091910280919002BC
:10285000981758F5E091910281E08E0F80939102D4
:10286000F0E0E059FD4F8081E9CFE091910281E0F5
:102870008E0F809391028091BB00F0E0E059FD4FF4
:10288000808390919102809190029817C8F285E818
:10289000D8CFE091910281E08E0F809391028091D8
:1028A000BB00F0E0E059FD4F808380916F02811101
:1028B0005ECF81E080936E0284EA8093BC00109228
:1028C0006D0228CF85EC8093BC0010926D02809140
:1028D0006B02803230F4E0916B02F0E0E55BFD4F7B
:1028E000108260916B0270E08BE492E0F0E0E0E037
:1028F000099510926B020ECF10926C0238CF1F9286
:102900000F920FB60F9211242F933F938F939F93A3
:1029100081E08093DE0280911E0290911F02019659
:1029200090931F0280931E0280911E0290911F02BD
:102930000A971CF180911C0290911D0201969093C0
:102940001D0280931C0210921F0210921E028091A1
:102950001A0290911B02019690931B0280931A0217
:1029600080911A0290911B02CD9724F010921B02C5
:1029700010921A0281E08093DC0280911C029091F7
:102980001D020597ACF110921D0210921C0281E00D
:102990008093DB022091CD023091CE022F5F3F4F1A
:1029A0003093CE022093CD022091CD023091CE0201
:1029B0002B303105BCF01092CE021092CD02209146
:1029C000CB023091CC022230310561F41092CC025E
:1029D0001092CB029091DD02992399F01092DD02C2
:1029E0008093DF028091CF02882371F01092CF0292
:1029F0009F918F913F912F910F900FBE0F901F903D
:102A000018958093DD02EECF81E08093CF02F0CF66
:102A10000F931F93CF93DF938C01EC01099000205B
:102A2000E9F72197C81BD90B66E08EEE92E00E9471
:102A300089036C2F6F5F8EEE92E00E948903F8018C
:102A400001900020E9F73197AF01401B510BB8010D
:102A50008EEE92E00E9464066AE08EEE92E00E94A2
:102A6000890360E28EEE92E00E948903DF91CF91AC
:102A70001F910F910C948102CF931092F10210924A
:102A8000F00288EE93E0A0E0B0E08093F202909331
:102A9000F302A093F402B093F5028CE591E09093D9
:102AA000EF028093EE028FEF9FEF9093FB028093F3
:102AB000FA0280933E031092400310923F0310925B
:102AC0004A03109249038FEF9FEFDC018093450387
:102AD00090934603A0934703B093480380916A0301
:102AE000811113C0109265031092640384EE92E08A
:102AF000909367038093660380E390E0909369036B
:102B00008093680381E080936A0380915C03811164
:102B10002AC0C1E0C0934F03C093500385E593E002
:102B200090935203809351031092540310925303D5
:102B300088E791E090934C0380934B0310925703E6
:102B4000109256031092590310925803C0935A03DF
:102B5000C0935B0381EC809355030E9444030E9461
:102B6000B601C0935C03E0915603F0915703309790
:102B700009F0B5C084E693E0909357038093560321
:102B80008091580390915903209168033091690313
:102B9000820F931F90935903809358031092370428
:102BA000109238041092390410923A0410923B04A7
:102BB00010923C0410923D0410923E041092320494
:102BC000109231041092340410923304109236049F
:102BD000109235046BEB71E081E394E00E94950F55
:102BE0008FEF90E090930C0480930B0410922D04CF
:102BF00010922E041092300410922F0484E891E079
:102C00009093EA038093E9031092EF031092F0038C
:102C10001092F1031092F2031092E1031092E2037A
:102C20001092E3031092E4038AE090E0A0E0B0E0A9
:102C30008093E5039093E603A093E703B093E80342
:102C40001092740310927803109277031092790314
:102C50008EE691E09093730380937203EEE8F3E0C5
:102C60008AEC93E0108214821382158236968E17B6
:102C70009F07C1F787E191E09093D5038093D40338
:102C800083E191E09093D7038093D60385E080930E
:102C9000D80384E08093D9038CE191E09093D3032F
:102CA0008093D2038AE090E09093DB038093DA0371
:102CB00084EF91E09093DD038093DC031092E003B6
:102CC0001092DF031092CE031092CF031092D00324
:102CD0001092D1031092DE03CF910895FC01808100
:102CE00091810097D9F784E693E09183808348CF60
:102CF000CF93DF93CDB7DEB768970FB6F894DEBFFA
:102D00000FBECDBF789484B5826084BD84B58160E8
:102D100084BD85B5826085BD85B5816085BD8091A6
:102D20006E00816080936E0010928100809181001E
:102D30008260809381008091810081608093810016
:102D400080918000816080938000809191008260FA
:102D50008093910080919100816080939100809197
:102D600090008160809390008091C1008460809386
:102D7000C1008091C10082608093C1008091C10038
:102D800081608093C1008091C30081608093C30003
:102D90008091C00082608093C0008091C2008160F9
:102DA0008093C20080917A00846080937A00809141
:102DB0007A00826080937A0080917A0081608093AB
:102DC0007A0080917A00806880937A001092E10204
:102DD0001092AF021092AE028091D7008160809372
:102DE000D70080EA8093D80089B5806189BD89B514
:102DF000826089BD09B400FEFDCF61E070E080E033
:102E000090E00E940F058091D8008F7C80618093B4
:102E1000D8008091E000807F8093E0008091E10005
:102E20008E7E8093E1008DE08093E200559A209A97
:102E3000F8941092800010928100109285001092F8
:102E4000840020E137E2309389002093880080934A
:102E5000810082E080936F0078942CE930E0309319
:102E600089002093880080936F002098289A559AB3
:102E700061E08CE00E94AA0461E081E00E94AA0463
:102E80008BEB91E00E946B0F8FEF9FEF9093FB0213
:102E90008093FA0283E090E09093EC038093EB033D
:102EA00081E090E09093EE038093ED038091C30264
:102EB000811145C01092B5021092B4028FEF809339
:102EC000B8028093B9028093BA028093BB028093C8
:102ED000BC028093BD0281E08093BE021092C002CA
:102EE0001092BF021092B7021092B6028091E202D5
:102EF0009091E302892B31F482EB92E09093E3020C
:102F00008093E202E091B002F091B102309721F09B
:102F100082EB92E09583848382EB92E09093B102FE
:102F20008093B0021092C2021092C1028AE491E032
:102F30009093B3028093B20281E08093C302509ACF
:102F400082ED92E09093B5028093B40283E090E02A
:102F50009093C0028093BF028091410390914203FD
:102F6000A0914303B0914403843C29E09207A1055A
:102F7000B10520F484EC99E0A0E0B0E08093410337
:102F800090934203A0934303B09344038FEF809345
:102F9000D2021092D3021092D4028093D5021092E2
:102FA000D6021092D7028093D8021092D9021092C2
:102FB000DA020E944C0D80EB9CE0909330048093E9
:102FC0002F04412C512C320143940FEF1FEF8091BD
:102FD000DF028823D9F11092DF021D861E86FF24AE
:102FE000FA94FF8660913E03CE010D960E94E40D97
:102FF00064EF71E080E090E00E940F05188A80E89D
:10300000898B1A8A60913E03CE0140960E94E40D9E
:1030100064EF71E080E090E00E940F05FB8AFC8A7B
:10302000FD8A60913E03CE0143960E94E40D64EF59
:1030300071E080E090E00E940F051E8A1F8A188EC2
:1030400060913E03CE0146960E94E40D8091DE021F
:10305000882309F467C11092DE020E947A06C090AC
:10306000CE03D090CF03E090D003F090D103AB011A
:10307000BC014C195D096E097F098091DA039091BA
:10308000DB03B0E0A0E084179507A607B70708F0B8
:103090001FC1F12C8091D803F81660F4E091D4039D
:1030A000F091D503EF0DF11D62E080810E94AA042A
:1030B000F394F0CF312C8091D903381608F064C016
:1030C000E32CF12CE091D603F091D703EE0DFF1D18
:1030D00061E080810E94AA04E091D603F091D703B9
:1030E000EE0DFF1D60E080810E947804D301C201D3
:1030F000032C04C0880F991FAA1FBB1F0A94D2F784
:103100004C015C01A094B094212C8091D803281626
:1031100020F5C22CD12CE091D403F091D503EC0D15
:10312000FD1D80810E944C04F6013496892B61F4C8
:10313000EE0FFF1FEE58FC4F80819181882999295D
:10314000918380832394E1CFEE0FFF1FEE58FC4F55
:10315000808191818A219B21F3CFE091D603F09168
:10316000D703EE0DFF1D61E080810E9478048091FD
:10317000D6039091D703E80EF91E60E0F701808135
:103180000E94AA04339497CFF2E7EF2EF3E0FF2ECC
:103190008EEA93E06701F601278D30A1232B31F4ED
:1031A000148E2FEF3FEF368F258F11A236E0C30E1E
:1031B000D11C8C159D0579F7B12C8091D803B816D8
:1031C00008F053C0A12C8B2C912C880C991CC401A5
:1031D00086589C4F4C012091D903A21608F043C099
:1031E000F401608171810A2C02C0769567950A947A
:1031F000E2F7B29E900111242A0D311DE2E7F3E0BF
:1032000080E0458D568D2417350709F4BAC48F5FC9
:1032100036968A30B1F760FF24C0E2E7F3E090E031
:1032200080E0448D411118C0E091D203F091D303A6
:10323000E20FF31F408156E0589FF001599FF00DB7
:103240001124EE58FC4F448F368F258F10A2178E15
:1032500061E00E94D30605C0019636968A3091053A
:1032600001F7A394B8CFB394A8CFE2E7F3E0B12C71
:1032700081A18111B82E3696CE16DF06C9F70E94BD
:103280007A066093CE037093CF038093D00390931C
:10329000D103BB20E9F07AEE872E73E0972EF70179
:1032A00081A1882379F0878D90A18130910509F45F
:1032B00082C008F454C18230910509F4D4C0039748
:1032C00009F4E6C0E6E0EE0EF11C8E149F0439F717
:1032D0008091DD02882331F1E2EDF2E030E020E080
:1032E0004FEFC9010397099708F43EC1408341831A
:1032F00012828091CF02882309F446C14093D802FC
:103300004093D9024093DA024093F6024093F702C9
:103310004093F8022F5F3F4F33962F30310509F766
:103320000E944C0D8091DC0281111092DC02809190
:10333000DB02882381F01092DB0261E08CE00E94C6
:10334000780460E081E00E9478046CE271E080E043
:1033500090E00E940F058091DD02811184C1E0910F
:103360002F04F0913004309709F0099580912E04D4
:10337000811102C00E94810880912E04882309F4E3
:1033800072C10E943509039709F06DC10E947A0647
:103390000E943509813309F004C10E9435096AE0B1
:1033A00070E080E090E00E940F058AE60E944708E6
:1033B0000E94810258C188E891E00E946B0F109230
:1033C000CE021092CD02F701348C61E3C62ED12CCF
:1033D000A32C032C000CBB08AC14BD0429F461E041
:1033E0008FEC8A0D0E94DB05FFEFCF1ADF0A2AE37C
:1033F000C216D10489F731E461E0331609F470C0D4
:1034000052E461E0351609F473C083E461E03816D4
:1034100009F474C094E461E0391609F475C0E5E478
:1034200061E03E1609F476C0F6E461E03F1609F467
:1034300077C027E461E0321609F478C038E461E02F
:10344000331609F479C059E461E0351609F47AC0FD
:103450008AE461E0381609F47BC09BE461E039122C
:1034600031CF84E13EC082E991E00E946B0FF70109
:10347000848D863451F48091CB029091CC020196D8
:103480009093CC028093CB021DCF8734A1F31ACF47
:103490001092CC021092CB021092CE021092CD026A
:1034A00089E991E00E946B0FF701348C51E3C52E3E
:1034B000D12CA32C032C000CBB08AC14BD0429F4A4
:1034C00060E08FEC8A0D0E94DB05FFEFCF1ADF0A68
:1034D0002AE3C216D10489F731E4331205C060E053
:1034E0008AE00E94DB05EECE52E4351203C060E0B4
:1034F0008BE0F7CF83E4381203C060E08CE0F1CFBB
:1035000094E4391203C060E08DE0EBCFE5E43E12B5
:1035100003C060E08EE0E5CFF6E43F1203C060E058
:103520008FE0DFCF27E4321203C060E080E1D9CF23
:1035300038E4331203C060E081E1D3CF59E435129F
:1035400003C060E082E1CDCF8AE4381203C060E0BE
:1035500083E1C7CF9BE43912B5CE60E082CF84EA25
:1035600091E00E946B0FAECE8091D0029091D1027B
:103570006AE070E00E94381E261737071CF440836B
:103580001182B6CE1082FCCF1092D8021092D902CE
:103590001092DA021092F6021092F7021092F802DC
:1035A000B9CE883309F08DC00E9435097C0168ECE2
:1035B00070E080E090E00E940F05F1E0EF16F1046A
:1035C000C9F41093FB020093FA0296E0E916F104A5
:1035D000E9F41093FB020093FA025BE0E516F104B4
:1035E000E9F41093FB020093FA0220E1E216F104E1
:1035F000B1F11CC022E0E216F10419F333E0E31646
:10360000F104C9F41093FB020093FA02E7E0EE160E
:10361000F104C9F41093FB020093FA028CE0E8165F
:10362000F104C9F41093FB020093FA0231E1E316AE
:10363000F104A9F018C054E0E516F104F1F4109378
:10364000FB020093FA02F8E0EF16F10469F510931B
:10365000FB020093FA029DE0E916F10469F510936C
:10366000FB020093FA020E947A0680E090E0892B28
:1036700009F4ADCC0E940000AACC85E0E816F10464
:1036800009F0A3CF1093FB020093FA023AE0E3168D
:10369000F10409F0A2CF1093FB020093FA02FFE0BD
:1036A000EF16F104E1F2A1CF29E0E216F10471F77F
:1036B0001093FB020093FA02EEE0EE16F10479F2A9
:1036C000EECF8A3419F40E94DA0CCDCF823319F48C
:1036D0000E94DA0CC8CF823419F40E94DA0CC3CFEE
:1036E000813411F483E062CE8E3449F48BEA91E0A8
:1036F0000E94A40E8AEB91E00E94A40E59CE893458
:1037000019F48CEB91E0F4CF8033E9F46AE070E0D7
:1037100080E090E00E940F0581EE91E00E94A40EEF
:1037200083EE91E00E94A40E85EE91E00E94A40E2B
:1037300087EE91E00E94A40E89EE91E00E94A40E13
:1037400088EB91E0D5CF833309F48DCF863509F42A
:103750008ACF833509F487CF843321F2863309F089
:10376000B3C00E943509181619060CF09EC08130AE
:10377000910581F5D12CED2CF12C8091EB039091EA
:10378000EC03E816F9066CF70E943509B82E0E9482
:103790003509C82E0E9435092091ED033091EE03C2
:1037A0002130310589F42091EB0321502D1930E0AF
:1037B000F901EE0FFF1FE20FF31FEE52FD4FB08233
:1037C000C1828283D394D7CFF701EE0FFF1FEE0D96
:1037D000FF1DF3CF82309105A1F50E9435097C01D0
:1037E0000E943509BE2CE80EF91ECB2CD12CCE142C
:1037F000DF040CF0B6CF0E943509982E0E943509DF
:10380000A82E0E9435092091ED033091EE0321305E
:10381000310589F42091EB0321502B1930E0F90197
:10382000EE0FFF1FE20FF31FEE52FD4F9082A182B9
:103830008283B394DACFF601EE0FFF1FEC0DFD1D6E
:10384000F3CF039709F08DCF0E9435097C010E94C8
:1038500035096C010E943509B82E0E943509A82E41
:103860000E9435099E2D4091ED035091EE03A091E9
:10387000EB03A150EC0CFD1C692F70E06E157F0569
:103880000CF06FCF4130510519F46A2F691B70E0BD
:103890009B01220F331F260F371FF901EE52FD4FF8
:1038A000B082A18282839F5FE7CF8091EB039091EA
:1038B000EC031816190614F40E944C0D0E944C0DCE
:1038C00085E10E944708CFCE8235D1F38D3409F4CB
:1038D000CACE873419F40E943509C5CE95EB980FEE
:1038E000923008F4C0CE803509F061C018861F827E
:1038F0001A8619861C861B866BEB71E0CE01079633
:103900000E94950F0E94350997FD0FC08A309105DE
:1039100061F089831A8241E050E0BE016F5F7F4F02
:10392000CE0107960E942D0FEDCF1A8219821C82BC
:103930001B821E821D826BEE71E0CE0101960E94F9
:10394000950F4B855C856F817885CE0101960E942D
:103950002D0F811104C0CE0101960E94590F67E01E
:103960008EEE92E00E9489036D816F5F8EEE92E091
:103970000E9489034D815E8169817A818EEE92E099
:103980000E9464066AE08EEE92E00E94890360E283
:103990008EEE92E00E9489030E948102CE01019680
:1039A0000E94C00FCE0107960E94C00F89CF8835B4
:1039B00009F059CE18861F821A8619861C861B8626
:1039C0006BEB71E0CE0107960E94950F0E943509BE
:1039D00097FD12C08032910579F08A30910561F02F
:1039E00089831A8241E050E0BE016F5F7F4FCE01B4
:1039F00007960E942D0FEACF6FED71E0CE01019680
:103A00000E94C80FBE016F5F7F4FCE0107960E94D4
:103A1000D50EF82ECE0101960E94C00FFF2091F026
:103A20008FEF91E00E94081587E092E00E94081550
:103A30008AE00E9447080E948102CE0107960E94F8
:103A4000C00F11CE67ED71E0CE0101960E94C80F44
:103A5000BE016F5F7F4FCE0107960E94D50EF82EF4
:103A6000CE0101960E94C00FFF2041F08EE10E941E
:103A7000470885E90E94470887E8DBCF62ED71E0DF
:103A8000CE0101960E94C80FBE016F5F7F4FCE012D
:103A900007960E94D50EF82ECE0101960E94C00F07
:103AA000F110CBCF6BEC71E0CE0101960E94C80FF4
:103AB000BE016F5F7F4FCE0107960E94D50EF82E94
:103AC000CE0101960E94C00FF110B7CF65EC71E0F6
:103AD000CE0101960E94C80FBE016F5F7F4FCE01DD
:103AE00007960E94D50EF82ECE0101960E94C00FB7
:103AF000F110A3CF60EC71E0CE0101960E94C80FD7
:103B0000BE016F5F7F4FCE0107960E94D50EF82E43
:103B1000CE0101960E94C00FF1108FCF6BEB71E0C8
:103B2000CE0101960E94C80FBE016F5F7F4FCE018C
:103B300007960E94D50EF82ECE0101960E94C00F66
:103B4000F1107BCF66EB71E0CE0101960E94C80FA9
:103B5000BE016F5F7F4FCE0107960E94D50EF82EF3
:103B6000CE0101960E94C00FF11067CF68EA71E0A4
:103B7000CE0101960E94C80FCE0101960E94C00F8F
:103B80005CCF617066CB81E394E00C94C00FFB01C5
:103B9000DC0105900D920020E1F70895FC010590ED
:103BA0000020E9F7809590958E0F9F1F08950E9441
:103BB000191EA59F900DB49F900DA49F800D911D7F
:103BC000112408952F923F924F925F926F927F92AD
:103BD0008F929F92AF92BF92CF92DF92EF92FF921D
:103BE0000F931F93CF93DF93CDB7DEB7CA1BDB0BC9
:103BF0000FB6F894DEBF0FBECDBF09942A8839886E
:103C000048885F846E847D848C849B84AA84B98474
:103C1000C884DF80EE80FD800C811B81AA81B98180
:103C2000CE0FD11D0FB6F894DEBF0FBECDBFED0194
:103C30000895A29FB001B39FC001A39F700D811D85
:103C40001124911DB29F700D811D1124911D0895A5
:103C5000DB018F939F930E94D71DBF91AF91A29FCD
:103C6000800D911DA39F900DB29F900D112408957A
:103C700097FB072E16F4009407D077FD09D00E9419
:103C80007B1E07FC05D03EF4909581959F4F0895CB
:103C9000709561957F4F0895A1E21A2EAA1BBB1B58
:103CA000FD010DC0AA1FBB1FEE1FFF1FA217B30708
:103CB000E407F50720F0A21BB30BE40BF50B661F1E
:103CC000771F881F991F1A9469F7609570958095E2
:103CD00090959B01AC01BD01CF010895EE0FFF1F30
:103CE0000590F491E02D09940E94191EB7FF0895E4
:103CF000821B930B0895AA1BBB1B51E107C0AA1F8F
:103D0000BB1FA617B70710F0A61BB70B881F991F7C
:103D10005A95A9F780959095BC01CD0108950F9310
:103D20001F93CF93DF938230910510F482E090E0EF
:103D3000E0914104F091420430E020E0B0E0A0E0E6
:103D4000309799F42115310509F44AC0281B390B25
:103D500024303105D8F58A819B816115710589F17F
:103D6000FB0193838283FE0111C040815181028156
:103D7000138148175907E0F04817590799F410972D
:103D800061F012960C93129713961C933296CF0102
:103D9000DF91CF911F910F910895009341041093EB
:103DA0004204F4CF2115310551F04217530738F082
:103DB000A901DB019A01BD01DF01F801C1CFEF01CB
:103DC000F9CF9093420480934104CDCFFE01E20FDE
:103DD000F31F819391932250310939832883D7CFE0
:103DE00020913F0430914004232B41F42091320173
:103DF000309133013093400420933F0420913001EF
:103E0000309131012115310541F42DB73EB7409174
:103E1000340150913501241B350BE0913F04F091A2
:103E20004004E217F307A0F42E1B3F0B28173907B5
:103E300078F0AC014E5F5F4F2417350748F04E0F06
:103E40005F1F5093400440933F04819391939FCF11
:103E5000F0E0E0E09CCFCF93DF930097E9F0FC0126
:103E6000329713821282A0914104B0914204ED0175
:103E700030E020E01097A1F420813181820F931F60
:103E800020913F04309140042817390709F061C0A0
:103E9000F0934004E0933F04DF91CF910895EA014D
:103EA000CE17DF07E8F54A815B819E014115510578
:103EB000B1F7E901FB83EA8349915991C40FD51FFA
:103EC000EC17FD0761F4808191810296840F951FA4
:103ED000E90199838883828193819B838A83F0E0BF
:103EE000E0E012968D919C9113970097B9F52D9172
:103EF0003C911197CD010296820F931F20913F04B0
:103F0000309140042817390739F6309751F510924F
:103F1000420410924104B0934004A0933F04BCCFEC
:103F2000D383C28340815181840F951FC817D9075D
:103F300061F44E5F5F4F88819981480F591F51830B
:103F400040838A819B81938382832115310509F007
:103F5000B0CFF0934204E09341049ECFFD01DC0119
:103F6000C0CF13821282D7CFB0E0A0E0EAEBFFE12E
:103F70000C94E41D8C01009751F4CB010E948F1E1C
:103F80008C01C801CDB7DEB7E0E10C94001EFC0146
:103F9000E60FF71F9C0122503109E217F30708F4DE
:103FA0009DC0D901CD91DC911197C617D70798F024
:103FB000C530D10530F3CE0104978617970708F373
:103FC000C61BD70B2297C193D1936D937C93CF01DE
:103FD0000E942B1FD6CF5B01AC1ABD0A4C018C0E80
:103FE0009D1EA0914104B0914204512C412CF12C12
:103FF000E12C109731F580913F0490914004881591
:10400000990509F05CC04616570608F058C0809123
:10401000300190913101009741F48DB79EB74091E6
:10402000340150913501841B950BE817F90708F00E
:1040300055C0F0934004E0933F04F901718360831D
:10404000A0CF8D919C91119712966C901297139618
:104050007C901397A815B90559F56C0142E0C40E80
:10406000D11CCA14DB0420F1AC014A195B09DA0146
:104070001296159780F06282738251834083D90132
:104080006D937C93E114F10471F0D7011396FC93C6
:10409000EE93129776CF22968C0F9D1FF901918394
:1040A0008083F301EFCFF0934204E093410469CFA2
:1040B0004816590608F42C017D01D3019ACFCB0193
:1040C0000E948F1E7C01009749F0AE01B8010E944A
:1040D0007620C8010E942B1F870153CF10E000E01B
:1040E00050CF81E090E0F8940C948F20FB01DC012C
:1040F00002C001900D9241505040D8F70895FB0145
:10410000DC018D91019080190110D9F3990B08956C
:10411000FB01DC0101900D920020E1F7089511E010
:10412000CBE8D1E004C0FE010E946E1E2196CC387F
:08413000D107C9F7F894FFCF95
:10413800FFFFFFFF00E100000000000000C18081D8
:104148000000000D070A040809050602313233345D
:1041580035363738394142434445464748494A4746
:1041680000004304800000000000D30ED30ED30EDD
:10417800830E7F0EDF0C000000006D0C110C0F0C7D
:10418800830E7F0E9C02AE090000000089036406BE
:104198009F038C02E603A403C20300000000E604A8
:1041A800A6047504000000008307FC07C107A607E2
:1041B800000000008E02E20D205052455353454442
:1041C8002E0020484F4C442E002052454C45415368
:1041D80045442E002049444C452E00534D4C5F4227
:1041E8005554544F4E5F424F58000A0030376532DD
:1041F800656534332D336132312D343864342D61A3
:104208003139332D6638623133653534656332644C
:104218000047004E0049004A0050004D6573736125
:104228006765207265636569766564203A20006D6C
:10423800637574797065006B656570616C69766526
:02424800000074
:00000001FF
